{
  "contractName": "SecondContract",
  "abi": [
    {
      "inputs": [],
      "name": "countTask",
      "outputs": [
        {
          "internalType": "uint256",
          "name": "",
          "type": "uint256"
        }
      ],
      "stateMutability": "view",
      "type": "function",
      "constant": true
    },
    {
      "inputs": [],
      "name": "hello",
      "outputs": [
        {
          "internalType": "string",
          "name": "",
          "type": "string"
        }
      ],
      "stateMutability": "pure",
      "type": "function",
      "constant": true
    }
  ],
  "bytecode": "0x60806040526000805534801561001457600080fd5b506101df806100246000396000f3fe608060405234801561001057600080fd5b50600436106100365760003560e01c806319ff1d211461003b57806346202d1114610059575b600080fd5b610043610077565b6040516100509190610153565b60405180910390f35b6100616100b4565b60405161006e919061018e565b60405180910390f35b60606040518060400160405280600b81526020017f48454c4c4f20574f524c44000000000000000000000000000000000000000000815250905090565b60005481565b600081519050919050565b600082825260208201905092915050565b60005b838110156100f45780820151818401526020810190506100d9565b83811115610103576000848401525b50505050565b6000601f19601f8301169050919050565b6000610125826100ba565b61012f81856100c5565b935061013f8185602086016100d6565b61014881610109565b840191505092915050565b6000602082019050818103600083015261016d818461011a565b905092915050565b6000819050919050565b61018881610175565b82525050565b60006020820190506101a3600083018461017f565b9291505056fea2646970667358221220ad4ee66a403985d2220d0d6d1aae672517747f1b16acc43485cd65d684dae23d64736f6c634300080d0033",
  "immutableReferences": {},
  "source": "pragma solidity >=0.8.13 <0.9.0;\n\ncontract SecondContract {\n\n    uint public countTask = 0;\n\n    function hello() public pure returns (string memory) {\n        return \"HELLO WORLD\";\n    }\n\n}\n",
  "sourcePath": "T:\\SirgamesOne\\aetherea-eth\\contracts\\SecondContract.sol",
  "compiler": {
    "name": "solc",
    "version": "0.8.13+commit.abaa5c0e.Emscripten.clang"
  },
  "schemaVersion": "3.4.7",
  "updatedAt": "2022-04-09T15:45:49.337Z",
  "networkType": "ethereum",
  "devdoc": {
    "kind": "dev",
    "methods": {},
    "version": 1
  },
  "userdoc": {
    "kind": "user",
    "methods": {},
    "version": 1
  }
}